:020000040800F2
:10000000E008002081020008812F0008792F0008F5
:100010007D2F000851070008C133000800000000D0
:10002000000000000000000000000000892F000810
:100030006D07000800000000852F00088D2F0008C4
:100040009B0200089B0200089B0200089B0200081C
:100050009B0200089B0200089B0200089B0200080C
:100060009B0200089B0200089B0200089B020008FC
:100070009B0200089B0200089B0200089B020008EC
:100080009B0200089B0200089B0200089B020008DC
:100090009B0200089B0200089B0200089B020008CC
:1000A0009B0200084D3000089B0200089B020008DC
:1000B000593000089B0200089B0200089B020008C0
:1000C0009B0200089B0200089B0200089B0200089C
:1000D0009B0200089B0200089B0200089B0200088C
:1000E0009B0200089B0200089B0200089B0200087C
:1000F0009B0200089B0200089B0200089B0200086C
:100100009B0200089B0200089B0200089B0200085B
:100110009B020008B5310008653000089B0200080A
:10012000610700089B0200089B0200089B02000870
:100130009B0200089B0200089B0200089B0200082B
:100140009B0200089B0200089B0200089B0200081B
:100150009B0200089B0200089B0200089B0200080B
:100160009B0200089B0200089B0200089B020008FB
:100170009B0200089B0200089B0200080000000090
:100180009B0200089B020008C13100089B02000886
:100190009B0200089B0200089B0200089B020008CB
:1001A0009B0200089B0200085507000800F002F8B7
:1001B00000F056F814A696E8000CB244B344DA45B1
:1001C00001D100F04DF8BAE80F000FA696E8300014
:1001D000A5EB040504EB0607AAEB0704A7F101074A
:1001E0004FEA15154FEA3414A4F10104AC4201D3CF
:1001F00000F036F813F0010F18BFFB1A43F00103AB
:1002000000F001F8DBE71847E85C0000085D00003B
:10021000103A24BF78C878C1FAD8520724BF30C832
:1002200030C144BF04680C60704700007047000094
:100230000023002400250026103A28BF78C1FBD8EF
:10024000520728BF30C148BF0B6070471FB505F08B
:100250004DFD9DE8030000F021F91FBD10B510BD54
:1002600000F0AEF91146FFF7F1FF03F071F900F06D
:10027000CCF903B4FFF7F2FF03BC00F0FDF9000076
:100280000948804709480047FEE7FEE7FEE7FEE72A
:10029000FEE7FEE7FEE7FEE7FEE7FEE70448054966
:1002A000054A064B7047000039300008AD010008D0
:1002B000E0020020E0080020E0040020E00400202C
:1002C00070B5064600F0CEF8056806F10B0020F088
:1002D0000704B4429CBF002070BD2B466A68BAB1C7
:1002E0001068A04210D304F1080188423CBF506856
:1002F000586007D35168101941601168091B0160EB
:1003000058601460101D70BD13465268002AE7D172
:100310002146284600F0AEF80028DED170BD53EA31
:10032000020C00F069802DE9F04B4FF00006002B25
:100330001FBFB3FA83F503FA05F424FA05F65E400D
:1003400012BF1643B2FA82F502FA05F4C5F1200590
:100350001EBF22FA05FC44EA0C04203556EA044C80
:100360004FEA144418BF641C4FF000084FF0000916
:10037000904271EB030C39D3002919BFB1FA81F710
:1003800001FA07F6B0FA80F700FA07F6C7F120077E
:100390001EBF20FA07FC46EA0C062037B6FBF4FC29
:1003A000A7EB0507103F07F01F0BCBF120062CFA37
:1003B00006F60CFA0BFB44BFB3460026202FA4BF61
:1003C0005E464FF0000B5BEA060C08BF4FF0010BD6
:1003D00019EB0B0948EB0608ABFB027C06FB02CCD1
:1003E0000BFB03CCC01B71EB0C01C1E70B460246B3
:1003F00041464846BDE8F08B13B5084318BF4FF09F
:10040000FF300146AFF30080BDE81C4070474FF05D
:10041000000200B5134694469646203922BFA0E854
:100420000C50A0E80C50B1F12001BFF4F7AF090760
:1004300028BFA0E80C5048BF0CC05DF804EB890051
:1004400028BF40F8042B08BF704748BF20F8022B94
:1004500011F0804F18BF00F8012B704770477047AC
:100460007047000000487047180000207047704730
:100470007047704738B504460A4600206946AFF316
:100480000080002808BF38BD02460099204600F0D1
:1004900075F8012038BD012000F08AB8F8B5AFF337
:1004A0000080054600200C460C2000BF0646A81917
:1004B000A0420DD9324669460020AFF30080070004
:1004C00008BF00F075F80098A04218BF0546C4198F
:1004D000FFF7C8FF05600746F01D20F0070046192A
:1004E000284600F00AF8B44208BFF8BDA21B314606
:1004F0003868BDE8F84000F041B800210160416073
:1005000070470C20704770B50446051FFFF7AAFF1F
:100510000068002C14BF446870BD002C18BFAC42AA
:100520003CBF20466468F8D301680A18AA4218BF85
:10053000456003D12A6805461144016028684119C5
:10054000A1421CBF6C6070BD61686960216808448D
:10055000286070BD10B500F00DF8006810BD10B532
:10056000044600F007F8046010BD00000048704722
:10057000100000200048704710000020034640682B
:100580008C46002818BF88423CBF03464068F8D319
:1005900018681844884207D00CF1030020F00700C7
:1005A000001D411A521A0146081D0A60FFF7ABBF31
:1005B00010B500F039F8BDE8104000F02FB87047D2
:1005C0007546FFF7D3FFAE4605006946534620F057
:1005D0000700854618B020B5FFF760FEBDE8204053
:1005E0004FF000064FF000074FF000084FF0000BEF
:1005F000AC46ACE8C009ACE8C009ACE8C009ACE85E
:10060000C00921F007018D46704710B50446AFF3CD
:1006100000802046BDE81040FFF72BBE002801D027
:1006200000F02AB87047000010B5012805D000215D
:1006300003A000F027F8012010BD09A1F8E7000091
:1006400053494752544D454D3A204F7574206F66BB
:100650002068656170206D656D6F72790000000023
:100660003A2048656170206D656D6F727920636F07
:10067000727275707465640001491820ABBEFEE7A4
:100680002600020070B505460C460A2000E06D1CED
:1006900000F011F835B128780028F8D102E0641C88
:1006A00000F009F814B120780028F8D1BDE87040B6
:1006B0000A20AFF3008008B569468DF800000320DA
:1006C000ABBE08BD0146806B036C026C13F0500F8B
:1006D00008D0D20648BF00F011B9806BC26C084642
:1006E000104700BF42F40071016401688A6812F08B
:1006F000405F01D000F0F8B8027E002AFAD1CA6A41
:1007000012F4700F02D08A685205F3D44A6822F0BE
:1007100020024A60016C21F480710164016CC904FB
:1007200048BF00F0E1B8016C41F00101016400F044
:10073000DBB80000806B40210164416C41F0040192
:10074000416400F0DBB80000806B00F0D5B8000019
:10075000FEE7000040F28800C2F2000000F028BB73
:1007600040F21410C2F2000000F072BC70470000AA
:1007700072B600BFFEE7000070B581B000220092A3
:1007800090F83C20012A03D1022001B070BD00BFC7
:10079000D1F800E00122BEF10A0F1FFA8EFC80F8AA
:1007A0003C2009D34FEA4C02036812FA8EF2A2F100
:1007B0001E0403F10C0204E003680EEB4E0403F187
:1007C000100207251668A54026EA050515608D6804
:1007D000166805FA04F4344314604968062907D8FA
:1007E00001EB81014A1F194651F8345F0FE000BF49
:1007F0000C2901EB810105D8A1F12302194651F81A
:10080000305F04E0A1F14102194651F82C5F1F242A
:10081000944025EA04040C600CFA02F20C6842F2DF
:10082000043CC4F2010C2243ACF54174A3420A60BB
:1008300006D0002180F83C10002001B070BD00BF40
:100840001221BEF1110FC1F2000118BF8E453BD13C
:10085000DCF800208E4522F48002CCF80020DCF881
:10086000002042F40002CCF80020E2D140F208015E
:10087000C2F2000109684DF68362C4F21B32A1FB8B
:100880000212910C01EB81014900009100990029AD
:10089000CFD000BF00990139009100990029C8D03C
:1008A00000990139009100990029C2D000990139BD
:1008B000009100990029BCD000990139009100995C
:1008C0000029E7D1B5E700BFBEF1120FB1D1DCF8C6
:1008D000001021F40001CCF80010DCF8001041F405
:1008E0008001CCF80010A4E740F27000C2F20000D2
:1008F0000168C068416070477047000070470000A1
:10090000002804BF0120704710B5016C00293DD0BC
:10091000016CC90645D4016C41F2021291430231C7
:1009200042F204320164C4F20102116821F4403140
:100930001160136890E812102343D0F810E01360A0
:100940004A68012422F480724A604A68C0F6007442
:1009500042EA0E224A604A6822F040724A604A68BF
:1009600042EA0C024A608A6822F400628A60C26825
:100970008B681A438A60826A8B68A24223F0706394
:100980008B608B6810D123F0405216E0044600F0D3
:1009900065F820460021616484F83C10016CC906AA
:1009A000B9D5012153E000BF1A438A608A6822F05A
:1009B00040528A60C26A8B681A438A608A6822F051
:1009C00002028A608A68037E90F8204042EA43026D
:1009D0008A604A6884B142F400624A604A684EF212
:1009E000000322F460424A60426ACFF6FF734C680B
:1009F00003EB4232224301E022F400624A60CA6AF9
:100A000040F2000C22F47002CA62C3694269CFF658
:100A1000F07CCC6A0CEB03532343CB628B6823F44A
:100A200000738B6090F830308C6844EA43238B600D
:100A30008B6823F480638B608B6843EA82228A6030
:100A400000214164026C012363F30102026400226D
:100A500080F83C20BDE810400846704770B586B06D
:100A6000044642F200002168C4F2010000268142DF
:100A70000596CDE903660296019601D006B070BDD9
:100A800043F630010096C4F202014A6900F5644061
:100A900042F480724A614A6902F480720092009ABC
:100AA00000960A6842F002020A60096801F0020139
:100AB000009100990321CDE9011101A9039600F0ED
:100AC000C1FC40F2141546F21040C2F20005C4F217
:100AD00002004FF48061C5E9000605F110004FF4F3
:100AE00000624FF400534FF4807C80E80E102846DB
:100AF000C5E90266C5E9086600F08CFB002818BF4E
:100B0000FFF736FEA563AC6306B070BDB0B582B02A
:100B10000023019390F83C30012B03D1022002B056
:100B2000B0BD00BF8E460123016880F83C308B6861
:100B30009446DB0729D18B684DF6836443F00103AB
:100B40008B6040F20803C2F200031B68C4F21B343E
:100B5000A3FB0434A30C03EB43030193019BA3B158
:100B6000019B013B0193019B7BB1019B013B0193E5
:100B7000019B53B1019B013B0193019B2BB1019B55
:100B8000013B0193019B002BEAD18B68DB0503D568
:100B90008B6823F480738B608C68036CE4070BD143
:100BA00043F01001016444300121026811430160E7
:100BB000002002B0B0BD00BF40F20174A34303F5B2
:100BC000807303644B685B0504D5036C012464F3F4
:100BD0000D330364046C0023E4044FF0000444BFAD
:100BE000446C24F00604446480F83C30836B40F28B
:100BF000C56440F24972C0F60004C0F60002C3E9C1
:100C00000F4240F23572C0F60002DA646FF0220241
:100C10000A604A6842F2043442F080624A608A689C
:100C2000054642F480728A604C311846724663462B
:100C3000C4F2010400F0A0FB21682868C90607D0AF
:100C4000A4F54171884227D0002002B0B0BD00BF9A
:100C500042F20001C4F20101884215D042F20021A3
:100C6000C4F2010188420CD042F20011C4F2010129
:100C70008842E9D12168C90606D0A4F5827188426C
:100C8000E2D12168C906DFD450F8081F11F0405F97
:100C9000DAD14FF0804188E74FF60450CFF6FF706D
:100CA000205810F0405FCFD1A4F53F704FF0804145
:100CB0007BE70000002804BF01207047417919B18B
:100CC000012141710020704710B5002101710446D7
:100CD00000F008F82046BDE81040012141710020D5
:100CE0007047000043F63001C4F202010068A1F52C
:100CF0000362904218BF704781B0002000900868DE
:100D000040F480500860086800F48050009000981B
:100D100001B070477047000090F83820012A4FF06A
:100D2000020242D070B580F8392000EB0112D2E9FE
:100D30000753D2F824E002F1180CA5F109024FEA9A
:100D40000E66022A38BF0EF07F464FF6F07446EA70
:100D500003460368C0F2FC04002946EA05010DD0F1
:100D6000DD69012A04EA050441EA0401D961DCF8DD
:100D70000010196111D820210CE000BF5D6A022A21
:100D800004EA050441EA04015962DCF800109961A3
:100D900003D228212EF07F425A500121002280F8F0
:100DA000391080F83820BDE87040104670470000C8
:100DB00070B50446006846680568F10718BF15F469
:100DC00080717DD1B0061AD515F4005017D0206877
:100DD0006169026822F4005202604FF020028260D2
:100DE000E06B40F00200E0634FF0040084F839004B
:100DF0004FF0000084F8380009B1204688473007DA
:100E00001AD515F4006017D020686169026822F4D1
:100E1000006202604FF008028260E06B40F0040064
:100E2000E0634FF0040084F839004FF0000084F8CC
:100E3000380009B12046884770070CD515F480604A
:100E400009D02068016821F480610160042181607B
:100E5000204600F07DF8B00718D515F4007015D0C5
:100E600020682169026822F4007202604FF00202D9
:100E70008260E06BE0634FF0010084F839004FF0CE
:100E8000000084F8380009B120468847F00658BFB2
:100E900070BD15F480502BD02068016821F480517A
:100EA000016010218160E06B0021E063012084F883
:100EB0003900204684F83810BDE87040FFF72ABF9B
:100EC000016821F480710160E16B41F00101E1638F
:100ED00001218160042084F8390061690020002923
:100EE00084F838003FF46EAF204688476AE700BFB9
:100EF00070BD0000002804BF0120704710B590F8B5
:100F0000391031B9002180F83810044600F022F879
:100F10002046022180F8391090E80E100C6824F465
:100F2000403422430A604A6B22F007021A434A63A4
:100F30000A6C43F6FF739A4342EA0C020A640021EA
:100F40000122C16380F83920BDE81040084670478F
:100F50007047000000684BF20001C4F202018842B1
:100F600018BF704780B582B00020019043F6300072
:100F7000C4F202000168002241F40001016000682F
:100F8000052100F40000019001985A2000F0F0FBC8
:100F90005A2002B0BDE8804000F0D8BB70B5866D25
:100FA000044600F02DFB94F83510022928D105469F
:100FB0002068216C026822F016020260426922F069
:100FC0008002426109B9A16C19B1016821F00801E0
:100FD0000160016821F00101016000BF2068006824
:100FE000C00715D000F00CFB401B0628F6D32020CC
:100FF0006065032084F83500002184F8341070BD4A
:10100000802060650120002184F8341070BD00BF8D
:10101000E06D3F2101FA00F0B060012084F8350056
:101020000020002184F8341070BD000090F83510C5
:10103000022909D1052180F835100068016821F0E6
:101040000101016000207047802141650120704747
:10105000F0B581B00021009140F20801C2F2000118
:101060000B68D0E9166148F2B51537680822C1F659
:101070004E358A403A42A3FB05350CD003681C6804
:10108000640708D51C6824F004041C60B260426D3B
:1010900042F00102426501228A403A4208D00368C8
:1010A0005B691B0604D5B260426D42F002024265E4
:1010B00004228A403A4208D003681B689B0704D583
:1010C000B260426D42F00402426510228A403A4208
:1010D00019D001680B681B0715D5B2600B680A6848
:1010E0005B0309D4D20509D40A6822F008020A6019
:1010F000016C29B907E000BF110341D4016C11B1A3
:10110000044688472046C26D202101FA02F33B4283
:1011100043D001680F68FF063FD5B36090F8357083
:101120000B68052F1CD123F016030B604B6923F0CD
:1011300080034B61036C0BB9836C1BB10B6823F00C
:1011400008030B603F219140B160012180F8351008
:10115000016D0022002980F8342054D158E000BFEE
:101160000A685B0310D4D20512D40A6822F0100278
:101170000A60012180F83510002180F8341007E062
:10118000816C0029BCD1BEE7110301D4416C00E0A1
:10119000C16B11B1044688472046416DC1B3416D12
:1011A000C9072ED0052180F835100168AA0A0B68FE
:1011B00023F001030B60009B0133934200931AD884
:1011C0000B68DB0717D0009B01339342009312D8C2
:1011D0000B68DB070FD0009B0133934200930AD8C2
:1011E0000B68DB0707D0009B01339342009302D8C2
:1011F0000B68DB07DFD1012180F83510002180F872
:101200003410C16C21B101B0BDE8F040084700BF07
:1012100001B0F0BD2DE9F041044600F0F1F9ECB168
:101220000546022084F835000020216884F8340047
:10123000086820F00100086021680868C00711D024
:1012400000F0DEF9401B0528F6D9032520230320F2
:10125000636584F83550BDE8F08100BF0120BDE82A
:10126000F08100BF086848F23F02CFF21002D4E9D3
:10127000013500EA020C04F10C0898E8C10143EAC8
:101280000C032B431843D4E9072E30433843104353
:10129000626A40EA0E00042A40EA08031CD1206B6F
:1012A000D4E90A2E40EA0E00184308604869BEF1EE
:1012B000000F20F0030040EA020040F0040C11D0BF
:1012C000B8F5005F36D0B8F1000F45D1022A46D0FC
:1012D000012A3BD032B942E00B60486920F0070098
:1012E00040EA020C01F0F8004AF6AB221038CAF6C8
:1012F000AA22A0FB02231A0945F6E863C1F814C02C
:10130000C0F600039A5C40F2FF335F284FF03F00C5
:1013100021EA030100FA02F088BF0431C4E9161281
:101320008860002301250020636584F83550BDE8FE
:10133000F08100BF032AD5D8012540230120DFE832
:1013400002F0030E030500BF82E700BFAEF1C070DC
:10135000B0FA80F0400904E0032A04D3C2D1CEF3EE
:1013600000600028BED0012540230120636584F879
:101370003550BDE8F081000090F834C0BCF1010F99
:1013800004BF0220704770B54FF0010C80F834C0E4
:10139000D0F858E090F835C0BCF1010F38D14FF0CB
:1013A000020C80F835C04FF0000CC0F854C0D0F8E3
:1013B00000C08468056CC06DDCF80060402C26F429
:1013C0008026CCF80060CCF804300B4604BF1346EE
:1013D0000A463F2101FA00F0CCF80830CCF80C2086
:1013E000CEF80800DCF8000040F01600CCF8000051
:1013F0002DB1DCF8000040F00800CCF80000DCF86B
:10140000000040F00100CCF80000002070BD00BFDB
:10141000002180F83410022070BD0000B0B50446F1
:1014200000F0EEF8054640F20000C2F2000000783D
:10143000611C18BF044400BF00F0E2F8401BA0424A
:10144000FAD3B0BD2DE9F04F83B000F1200200F1D6
:101450003E4742F20045009207F1FF77C4F20205D1
:101460000A224FEAB726A84208BF092200254FF0FA
:1014700000084FF00009092E38BF4FEAB722019249
:101480000AE000BF09F1010908F10208B9F1100FE3
:1014900005F1040500F0A2800F68012202FA09FE9E
:1014A00017EA0E0AEED0D1F804C003220CF00307AD
:1014B0007E1E02FA08F4012E6FEA040B12D884682B
:1014C000CE6804EA0B0406FA08F6344384604468E4
:1014D00024EA0E06CCF3001404FA09F4264346600D
:1014E00004E000BF032F01D103271EE0C6688C680B
:1014F00006EA0B0604FA08F42643022FC66014D14C
:101500006FF00302009E02EA590756F807C005F083
:101510001C040F220B69A2402CEA0202A3401A43CA
:10152000F251D1F804C00CF00307026807FA08F37F
:1015300002EA0B021A431CF4403F0260A2D00022D0
:1015400043F644030292C4F202031A6843F60044CD
:1015500042F480421A601A68C4F2010402F4804224
:101560000292029A29F003024FF6084C2244CFF669
:10157000FF7C52F80C3005F00C070F26BE40B34339
:10158000019E06FA07F73B4342F80C30A2684B680D
:1015900042EA0A0743F60C4CDE0258BF22EA0A0769
:1015A000A760C4F2010CDCF800209E0242EA0A07A0
:1015B00058BF22EA0A07CCF8007062689E0342EA2C
:1015C0000A0758BF22EA0A0767602268DB0342EA7B
:1015D0000A0758BF22EA0A07276053E703B0BDE8AD
:1015E000F08F0000426902EA0103914341EA03419E
:1015F00081617047002A08BF0904816170470000BB
:1016000040F2DC20C2F200000068704740F20000A7
:1016100040F2DC21C2F20000C2F2000100780A6848
:10162000104408607047000080B543F60040C4F2E3
:101630000200016841F400710160016841F48061B9
:101640000160016841F480710160032000F0BCF882
:101650000F2000F005F800F05DF8002080BD0000CC
:1016600070B586B0002543F640010195C4F2020131
:101670000A68044642F010020A60096801A801F0F5
:10168000100101910199694600F060F9049E002E55
:1016900018BF012600F07AF94DF68361B040C4F21C
:1016A0001B31A0FB01014FF0FF3000EB914140F2F4
:1016B000042041F20002C2F20000C4F2000240F233
:1016C000E733C0E90021C0E902530561856100F0FC
:1016D00019FC08B106B070BD40F20420C2F200004F
:1016E00000F078FC0028F5D1362000F02FF80F2C00
:1016F0000CD836202146002200F03AF840F20401CE
:101700000020C2F200010C6006B070BD012006B0DE
:1017100070BD000082B0002043F640010190C4F289
:1017200002014A6842F480424A604A6802F48042F8
:101730000192019A0090086840F0805008600868A3
:1017400000F080500090009802B07047002848BF19
:10175000704700F01F01012202FA01F11C2202EA87
:10176000D0004EF20012CEF200028150704700000D
:1017700010B54EF60C5CCEF2000CDCF80030C3F372
:10178000022E8EF00704042C28BF0424BEF10303AC
:101790004FF0FF3E0EFA04F438BF0023A1439940F6
:1017A0000EFA03F39A43114300F00F0200F1604375
:1017B0000901043A03F564436244002848BF02F17A
:1017C0000C03197010BD00004EF60C51CEF2000152
:1017D0000A684FF6FF031A4060F30A2242F0806065
:1017E00040F0FD7008607047002804BF012070477A
:1017F0002DE9F04143F60808C4F202080446D8F87F
:10180000F8030D4600F00F00884207D288F8F8531D
:10181000D8F8F80300F00F00A84277D120688107BC
:1018200017D5410705D5D8F8001041F4E051C8F8A4
:101830000010010705D5D8F8001041F46041C8F840
:101840000010D8F80010A26821F0F0011143C8F888
:101850000010C00740D1D8F8F80300F00F00A842EC
:1018600007D988F8F853D8F8F80300F00F00A84219
:101870004CD12068410707D5D8F80010E26821F460
:10188000E0511143C8F80010000708D5D8F800004F
:10189000216920F4604040EAC100C8F8000000F06F
:1018A0009DF8D8F8001045F6D062C1F30311C0F6D8
:1018B0000002515C40F2080220FA01F140F20400FB
:1018C000C2F200000068C2F200021160FFF7C8FE19
:1018D0000020BDE8F08100BF6068811E022907D2A8
:1018E00058F8081C89015CBF0120BDE8F08111E0B7
:1018F000012807D158F8081C89035CBF0120BDE806
:10190000F08107E058F8081C890703D40120BDE8DE
:10191000F08100BFD8F8001021F003010843C8F897
:101920000000FFF76DFE064641F28837D8F8000048
:10193000616800F00C00B0EB810F8CD0FFF760FE07
:10194000801BB842F2D90320BDE8F0810F2202606B
:1019500043F60802C4F20202136803F00303436073
:10196000136803F0F0038360136803F4E053C3606B
:10197000D2F800C04FF4E05303EADC030361D2F86D
:10198000F80300F00F0008607047000040F2080004
:1019900043F60801C2F20000C4F2020100680968BF
:1019A00045F6E062C1F38221C0F60002515CC840F6
:1019B0007047000040F2080043F60801C2F2000040
:1019C000C4F202010068096845F6E062C1F34231E1
:1019D000C0F60002515CC8407047000010B543F6E5
:1019E0000404C4F20204606800F00C0142F20040FA
:1019F0000829C0F2F40007D0042918BF10BD41F235
:101A00000020C0F27A0010BD216801F03F02216879
:101A100023684902C3F3881106D4A1FB0001002307
:101A2000FEF77DFC07E000BF41F20020C0F27A0023
:101A30004843B0FBF2F021680222C1F3014102EBFE
:101A40004101B0FBF1F010BD002804BF0120704738
:101A50002DE9F04182B00446007843F60006C00745
:101A6000C4F202060CD0B06800F00C00042840F06C
:101A700081803068800303D56068002800F06881A9
:101A8000207880071BD5B06810F00C0F09D0B06823
:101A900000F00C00082840F087807068400200F1D8
:101AA00083803068800703D5E068012840F05081CA
:101AB0003068216920F0F80040EAC10030602078E9
:101AC000000713D4207840072AD4A569002D00F020
:101AD0003A81B06800F00C00082840F0A580012D84
:101AE00040F00E81012002B0BDE8F081606900285D
:101AF00000F082800020C4F247200121C0F8801E3F
:101B0000FFF77EFD054600BF706F8007DAD4FFF750
:101B100077FD401B0228F7D9032002B0BDE8F08111
:101B2000306C5FEAC0080AD400200190306C40F0AD
:101B300080503064306C00F080500190019847F282
:101B40000007C4F200073868C00547D4386840F47D
:101B500080703860FFF754FD054600BF3868C00547
:101B60003CD4FFF74DFD401B0228F7D9032002B0FB
:101B7000BDE8F081B06800F00C00082803D170685F
:101B800040023FF576AF61683068B1F5803F07D01D
:101B9000B1F5A02F40F09A8040F48020306030688A
:101BA00040F4803030609AE0E068002840F20000A5
:101BB000C4F247205CD001210160FFF721FD0546FA
:101BC000306880073FF574AFFFF71AFD401B02280D
:101BD000F6D9032002B0BDE8F08100BFA168306FE4
:101BE000012905D0052955D140F004003067306F38
:101BF00040F00100306756E00020C4F24720002189
:101C0000C0F8801EFFF7FCFC054600BF706F800720
:101C10007FF558AFFFF7F4FC401B0228F6D90320EC
:101C200002B0BDE8F08100BF0027C4F247270020C2
:101C30003866FFF7E5FC022D05460DD130688001BE
:101C400040F18A80FFF7DCFC401B02284FF00300C4
:101C5000F4D902B0BDE8F0813068800173D5FFF798
:101C6000CFFC401B02284FF00300F5D9F1E700BF7D
:101C700000210160FFF7C4FC054600BF3068800703
:101C80007FF51DAFFFF7BCFC401B02284FF003009F
:101C9000F4D9DEE720F001003067306F002920F032
:101CA000040030677AD0FFF7ABFC054641F2883775
:101CB000306F800700F18480FFF7A2FC401BB84220
:101CC000F6D9032002B0BDE8F08100BF20F48030D7
:101CD00030603068002920F4802030607AD0FFF72F
:101CE0008FFC0546306880033FF5CAAEFFF788FCDD
:101CF000401B6428F6D9032002B0BDE8F08100BF84
:101D00007068E16900F480028A4221D1216A00F002
:101D10003F028A421CD147F6C071626A0140B1EBB2
:101D2000821F15D1A16A4FF6FF73C903994300F4CE
:101D30004032A1F580318A420AD1E16A00F0706038
:101D4000B0EB016F04D1002002B0BDE8F08100BF0C
:101D5000012002B0BDE8F08104F11C052FCD08433D
:101D600040EA8210D9034FF6FF729143A1F580310A
:101D700040EA05600843706001203866FFF740FCC8
:101D8000044600BF30688001DDD4FFF739FC001B3A
:101D900002284FF00300F5D95BE700BFFFF730FCE6
:101DA000054641F2883700BF306F800708D5FFF73E
:101DB00027FC401BB8424FF00300F5D949E700BFAC
:101DC000B8F1000F3FF581AE306C20F080503064E8
:101DD0007BE600BFFFF714FC054600BF30688003B8
:101DE0007FF54EAEFFF70CFC401B64284FF003005C
:101DF000F4D92EE7704700007047000090F83C20AF
:101E0000012A04BF02207047B0B501F108053CCD9E
:101E1000D1E900CE23F47C5322F470521A432EF4FD
:101E2000F0431A432CF4E0431A4324F4C0431A430A
:101E30002A43C96922F4804203681143596400218E
:101E400080F83C100020B0BD90F83C20012A4FF0F3
:101E5000020254D010B580F83D200268D2F804E0A8
:101E6000D2F808C00C682EF07003234341F2FF74CF
:101E7000C4F20004A24253600EDC40F2FF73C4F2CD
:101E800000039A4216DCB2F1804F2BD040F200439F
:101E9000C4F2000324E000BF40F2FF33C4F20103A8
:101EA0009A4213DC41F60003C4F200039A4219D0AF
:101EB000002313E040F60003C4F200039A4211D05D
:101EC00040F60043C4F200030AE000BF44F20003FE
:101ED000C4F201039A4205D040F20043C4F2010368
:101EE0009A4204D149682CF0800319439160012182
:101EF000002280F83D1080F83C20BDE810401046DC
:101F000070470000002804BF0120704710B5044648
:101F100090F83D0028B9002084F83C00204600F0ED
:101F20001FF8022084F83D002068211D01F0A0F870
:101F3000012084F8460084F83E0084F83F0084F8CD
:101F4000400084F8410084F8420084F8430084F89B
:101F5000440084F8450084F83D00002010BD0000D6
:101F600010B582B00068B0F1804F15D00021C4F2E6
:101F7000010188422CD10020019043F64000C4F2B8
:101F800002004168192441F001014160406800F0FD
:101F90000100019001980FE00020009043F64000FE
:101FA000C4F2020001681C2441F0010101600068D4
:101FB00000F0010000900098204600210022FFF769
:101FC000D7FB204602B0BDE81040FFF7BFBB00BF03
:101FD00002B010BD90F83D1001291CBF01207047D0
:101FE000022180F83D10006841F2FF72C168C4F21E
:101FF0000002904241F00101C1600DDC40F2FF712E
:10200000C4F20001884215DCB0F1804F2AD040F2C2
:102010000041C4F2000123E040F2FF31C4F20101AB
:10202000884213DC41F60001C4F20001884219D055
:10203000002113E040F60001C4F20001884211D0F3
:1020400040F60041C4F200010AE000BF44F2000182
:10205000C4F20101884205D040F20041C4F20101FE
:10206000884206D1816801F00701062904BF0020DB
:102070007047016841F001010160002070470000D5
:1020800090F83C20012A4FF002026CD080B580F815
:102090003D20D0F800C04FF67772DCF8083023EA14
:1020A0000202CCF808200B684F2B29DC1F2B45DDE2
:1020B000202B46D0302B44D0402B40F0AF80D1F8BD
:1020C00004E0C968DCF82030DCF8202022F00102AE
:1020D000CCF82020DCF8182022F0F00242EA0111AE
:1020E00023F00A0242EA0E02CCF81810CCF82020A5
:1020F000DCF8081041F0470121F0300128E000BF72
:102100006F2B33DDB3F5005F74D0B3F5805F21D062
:10211000702B40F08380D1E901E3C968DCF8082026
:1021200043EA0E0322F47F4243EA01211143CCF833
:102130000810DCF8081041F0770109E00BB1102B12
:102140006CD1DCF8081021F07001194341F007014F
:10215000CCF808100022012180F83D10002180F801
:102160003C10BDE880401046704700BF502B21D086
:10217000602B53D1D1F804E0C968DCF82030DCF8DA
:10218000202022F01002CCF82020DCF8182022F4C5
:10219000704242EA013123F0A00242EA0E12CCF86A
:1021A0001810CCF82020DCF8081041F0670121F06D
:1021B0001001CDE7D1F804E0C968DCF82030DCF884
:1021C000202022F00102CCF82020DCF8182022F098
:1021D000F00242EA011123F00A0242EA0E02CCF8B0
:1021E0001810CCF82020DCF8081041F0570121F03D
:1021F0002001ADE7D1E901E3C968DCF8082043EA32
:102200000E0322F47F4243EA01211143CCF8081067
:10221000DCF8081041F480419AE700BF01229AE7F8
:102220007047000070B504460068C5680669B107CC
:1022300016D515F0020113D06FF0020101610121E2
:1022400021778069800703D02046FFF7E9FF05E08A
:10225000204600F0D7F8204600F016FA002020773C
:10226000700719D515F0040016D020686FF004012E
:10227000016102212177806910F4407F04D020465B
:10228000FFF7CEFF06E000BF204600F0BBF8204677
:1022900000F0FAF900202077300717D515F0080074
:1022A00014D020686FF00801016104212177C06912
:1022B000800703D02046FFF7B3FF05E0204600F07B
:1022C000A1F8204600F0E0F900202077F00619D5AB
:1022D00015F0100016D020686FF010010161082180
:1022E0002177C06910F4407F04D02046FFF798FFA3
:1022F00006E000BF204600F085F8204600F0C4F953
:1023000000202077F00718BF15F0010002D1300639
:1023100009D412E020686FF001010161204600F04D
:102320003DFA300609D515F0800006D020686FF020
:10233000800101612046FFF75DFD700609D515F0AB
:10234000400006D020686FF040010161204600F097
:102350002FFAB00658BF70BD15F0200008D02168D4
:102360006FF0200220460A61BDE87040FFF744BDCF
:1023700070BD000080B586B000680021B0F1804FCC
:102380000591CDE90311029101911BD00021C4F206
:102390000101884233D10020009043F63000C4F29E
:1023A0000200016841F01001016000684FF4D4415F
:1023B00000F01000009000980020C4F2020000F528
:1023C000805011E043F630000091C4F20200016831
:1023D00041F0010101600068202100F0010000903F
:1023E00000980020C4F20200019102210291002114
:1023F000CDE903110121059101A9FFF723F806B0EA
:1024000080BD00007047000090F83C30012B04BFF5
:10241000022070474FEAB202032A00F2FF802DE942
:10242000F043DFE802F003B13F7F00BF036840F2F2
:1024300000461C6A1A6A24F0020422F001021A62A1
:102440001A46D3F804C052F818EF8F6843F4806539
:10245000C4F20106B54244EA070405D1CF6824F06E
:102460000C0427F004073C430F68B54206D1D1E9BC
:1024700005582CF440762E4346EA080C2EF07306DD
:102480003743C3F804C09F614F6809695F631C62EA
:102490009F6947F008079F619F6927F004079F61C4
:1024A000B1E000BF036840F200481C6A1A6A24F4D5
:1024B000007422F480721A621A46D3F804C052F8EB
:1024C0001CEF8F6843F48065C4F20108454544EA77
:1024D000072408D1CF6840F2FF463F0224F440644D
:1024E00027EA06063443D1F80090454506D1D1E9E4
:1024F00005562CF440572E4347EA061C2EF073076E
:1025000047EA0907C3F804C0DF614F680969DF6360
:102510001C62DF6947F00807DF61DF6927F0040705
:10252000DF6170E0036840F20045D3F820C01A6A0A
:1025300043F4806722F480521A621A465C6852F8AB
:102540001C8FD1F800E08E68C4F20105AF4204D1BF
:102550004D6924F4804444EA85142CF4005747EA7A
:10256000063728F4E64646EA0E265C60DE614E68D1
:1025700009691E641F62DF6947F40067DF61DF6974
:1025800027F48067DF613DE0036840F200481C6A81
:102590001A6A24F0200422F010021A621A46D3F8B4
:1025A00004C052F818EF8F6843F48065C4F2010844
:1025B000454544EA071407D1CF686FF0400624F080
:1025C000C00406EA07163443D1F80090454506D109
:1025D000D1E905562CF440672E4347EA860C2EF4C9
:1025E000E64747EA0927C3F804C09F614F680969B5
:1025F0009F631C629F6947F400679F619F6927F48E
:1026000080679F6109021368194311600021BDE8CA
:10261000F043002280F83C20084670470121002248
:1026200080F83C2008467047002804BF012070470E
:1026300010B5044690F83D0028B9002084F83C000D
:10264000204600F01FF8022084F83D002068211D7C
:1026500000F00EFD012084F8460084F83E0084F866
:102660003F0084F8400084F8410084F8420084F878
:10267000430084F8440084F8450084F83D000020BD
:1026800010BD00007047000070470000C1B1042970
:1026900008D0082914BF41224022825C012A05D0BB
:1026A00016E000BF3F22825C012A11D102220829D4
:1026B00010D0042914BF80F8412080F83F200BE09F
:1026C00090F83E20012A03D1022280F83E2003E048
:1026D0000120704780F84020006801F01F010122AE
:1026E000036A02FA01F123EA01020262026A11435B
:1026F00041F2FF72C4F20002904201620CDC40F22F
:10270000FF71C4F20001884214DCB0F1804F37D071
:1027100040F2004116E000BF40F2FF31C4F2010177
:10272000884215DC41F60001C4F20001884227D03E
:10273000002115E040F60001C4F2000188421FD0DC
:1027400040F60041C4F20001884219D01FE000BFEA
:1027500044F20001C4F20101884211D040F200416C
:10276000C4F20101884212D1416C40F2004340F4AE
:102770008062C4F2010341F400419A42416406D1EF
:10278000816801F00701062904BF00207047016835
:1027900041F001010160002070470000006841F233
:1027A0000001C4F20001884218BF7047FEF72EBF37
:1027B000704700007047000070470000B0B582B05D
:1027C00001680A68CC684B6902F02F05202D04F0DF
:1027D000200505D125B102B0BDE8B04000F0FCBC39
:1027E0005FEA027C1EBF03F0010E04F4907313EB4A
:1027F0000E0341D1036BD50618D5012B16D114F069
:10280000100313D0002201920A6801924A680192D3
:10281000019A496949064BD4818DC28DC38D002B25
:1028200018BF914240F0F48102B0B0BD13062DD51F
:1028300014F080032AD090F84120212AF4D1826834
:10284000B2F5805F03D10269002A00F06782026A54
:10285000531C036212784A60C28C013A1304C2848A
:10286000E2D1C86820F08000C860C86840F040002D
:10287000C86002B0B0BD00BFD30718BF14F48073A6
:1028800040F0D080530700F1D380D8E05206CBD57A
:1028900014F04002C8D0CA6822F04002CA60202169
:1028A00080F8411002B0BDE8B04000F063BB00BF4B
:1028B000C16B0A68526893B2002BB5D0858DAB42CC
:1028C000B2D2C285C969B1F5807F00F0A0800168ED
:1028D00051E8031F026821F4807142E80313DBB161
:1028E000016851E8031F026821F4807142E8031374
:1028F00093B1016851E8031F026821F4807142E836
:1029000003134BB1016851E8031F026821F4807181
:1029100042E80313002BDAD1016851E8051F026871
:1029200021F0010142E80513BBB3016851E8051F1E
:10293000026821F0010142E8051373B3016851E810
:10294000051F026821F0010142E805132BB301685D
:1029500051E8051F026821F0010142E80513002B30
:10296000DAD11AE0016851E8051F026821F0400140
:1029700042E80513DBB1016851E8051F026821F048
:10298000400142E8051393B1016851E8051F026850
:1029900021F0400142E805134BB1016851E8051FE1
:1029A000026821F0400142E80513002BDAD1202112
:1029B00080F8421000210163016851E8031F02689A
:1029C00021F0100142E80313DBB1016851E8031F55
:1029D000026821F0100142E8031393B1016851E845
:1029E000031F026821F0100142E803134BB1016894
:1029F00051E8031F026821F0100142E80313002B85
:102A0000DAD1C16B04460846FEF7C8FA2046022117
:102A10004163818DC28D891A89B202B0BDE8B04090
:102A2000FFF7C8BE436C43F001034364530706D568
:102A3000BEF1000F03D0436C43F0020343649307DD
:102A400006D5BEF1000F03D0436C43F0040343648A
:102A5000BCF1000F06D55EEA050303D0436C43F0DA
:102A600008034364436C002B3FF4DEAE920605D5A9
:102A700025B1044600F0B0FB216820464969426C4C
:102A800001F0400102F00802891800F0B98000BF8F
:102A9000016851E8031F026821F4907142E80313B2
:102AA000BBB3016851E8031F026821F4907142E84A
:102AB000031373B3016851E8031F026821F4907196
:102AC00042E803132BB3016851E8031F026821F4A5
:102AD000907142E80313002BDAD11AE0016851E843
:102AE000051F026821F0010142E80513DBB101680E
:102AF00051E8051F026821F0010142E8051393B176
:102B0000016851E8051F026821F0010142E8051340
:102B10004BB1016851E8051F026821F0010142E84C
:102B20000513002BDAD1016B012924D1016851E88A
:102B3000031F026821F0100142E80313DBB10168B2
:102B400051E8031F026821F0100142E8031393B11A
:102B5000016851E8031F026821F0100142E80313E5
:102B60004BB1016851E8031F026821F0100142E8EF
:102B70000313002BDAD1202180F8421000210163D9
:102B800001684969490640F1C380016851E8051FA1
:102B9000026821F0400142E80513DBB1016851E809
:102BA000051F026821F0400142E8051393B1016856
:102BB00051E8051F026821F0400142E805134BB1BE
:102BC000016851E8051F026821F0400142E8051341
:102BD000002BDAD1C16B002900F09A8043F2CD12AC
:102BE000C0F60002044608460A65FEF71FFA0028F0
:102BF0003FF41AAEE06B016D02B0BDE8B04008478B
:102C00000446FFF7D9FD0020606402B0B0BD00BFEC
:102C1000891A00BF026852E8032F036822F49072F9
:102C200043E80325BDB3026852E8032F036822F48A
:102C3000907243E8032575B3026852E8032F0368D6
:102C400022F4907243E803252DB3026852E8032F63
:102C5000036822F4907243E80325002DDAD11AE0CC
:102C6000026852E8052F036822F0010243E80525B7
:102C7000DDB1026852E8052F036822F0010243E843
:102C8000052595B1026852E8052F036822F001027C
:102C900043E805254DB1026852E8052F036822F08C
:102CA000010243E80525002DDAD1202280F84220D8
:102CB00000220263026852E8032F036822F0100228
:102CC00043E80325DDB1026852E8032F036822F0D0
:102CD000100243E8032595B1026852E8032F036808
:102CE00022F0100243E803254DB1026852E8032F99
:102CF000036822F0100243E80325002DDAD10222F6
:102D000089B2426302B0BDE8B040FFF753BD00BFD7
:102D100002B0BDE8B040FFF74FBD00BF026A32F815
:102D2000023B6FF35F234B60026295E5002804BF0E
:102D30000120704710B5044690F8410028B90020E2
:102D400084F84000204600F021F8242084F8410057
:102D50002068C16821F40051C160204600F0BCFA2F
:102D60002068016921F490410161416921F02A0143
:102D70004161C16841F40051C160002020216064BC
:102D800084F8411084F84210606310BDF0B587B03C
:102D9000006847F60002C4F2000200219042CDE92B
:102DA0000511CDE90311029144D045F20001C4F2AE
:102DB0000001884272D1002543F630000195C4F22B
:102DC0000200016940F6000441F4801101610169CB
:102DD000C4F2020401F48011019101990195016886
:102DE000022641F0040101600168032701F004019B
:102DF000019101990195016841F0080101600068A5
:102E000002A900F00800019001984FF48050029050
:102E1000082006902046CDE903650597FEF712FBD2
:102E20000420CDE90206CDE9045704F5806035247D
:102E300027E000BF43F630000191C4F202000269AE
:102E4000522442F080420261026902F08042019203
:102E5000019A0191026842F010020260006800F0DD
:102E60001000019001984FF4C07002900220CDE94B
:102E700003010320059040F60000C4F2020000F5B3
:102E800000600821069102A9FEF7DCFA2046002125
:102E90000022FEF76DFC2046FEF758FC07B0F0BD9F
:102EA00090F84230202B07D100294FF0010318BFC2
:102EB000002A05D11846704702231846704700BF04
:102EC00000230363816222218285C285436480F8E6
:102ED00042100169006819B1C16841F48071C16094
:102EE000416941F001014161C16841F02001C160C7
:102EF00018467047016845F20000C4F200008142A4
:102F000040F27000C2F2000008D047F60002C4F29E
:102F10000002914218BF7047083000E00430036897
:102F20004FF0010C1868191D0622C3F80CC0FFF7FA
:102F3000B7BF000090F84130202B07D100294FF097
:102F4000010318BF002A05D118467047022318460E
:102F5000704700BF0162002321218284C284436440
:102F600080F841100068C16841F08001C1601846D6
:102F70007047000070470000FEE70000FEE7000019
:102F8000FEE7000070470000704700007047000037
:102F900070B592B006AC20463021FDF738FA002516
:102FA00043F640000595CDE90355CDE9015500955F
:102FB000C4F202000168012241F080510160006802
:102FC000022600F080500090009847F20000009523
:102FD000C4F20000016862F38F310160006800F400
:102FE0004040009000984FF4803007904FF48000EC
:102FF0000D9004200E904820CDE90F06032011907B
:10300000204606920C96FEF71FFD18B172B600BF5F
:10301000FEE700BF0F20CDE901064FF48050CDE957
:10302000040501A802210395FEF7DEFB10B172B67C
:10303000FEE700BF12B070BD4EF68850CEF2000021
:10304000016841F4700101607047000040F27410A3
:10305000C2F20000FFF7E6B840F2BC10C2F2000076
:10306000FFF7E0B840F20420C2F20000FFF7DAB840
:1030700010B540F6FF3E0368C4F2000E40F2004C6B
:103080007045C4F2010C25DCB0F1804F2FD040F226
:103090000042C4F20002904229D040F60002C4F27D
:1030A0000002904223D041F6FF72C4F20002904227
:1030B00027DC70453ADCB0F1804F5BD040F2004233
:1030C000C4F20002904255D040F60002C4F2000261
:1030D0004EE000BF40F60042C4F20002904206D02B
:1030E000604504D00022C4F201029042DBD14A685C
:1030F00023F07003134341F6FF72C4F200029042C2
:10310000D7DD43F6FF72C4F20102904220DC42F2A6
:103110000002C4F2000290422CD00022C4F201024C
:10312000904227D0604525D028E000BF40F60042FD
:10313000C4F2000290421DD041F60002C4F2000227
:10314000904217D041F60042C4F2000210E000BFE6
:1031500044F20002C4F2010290420BD044F6000295
:10316000C4F20102904205D044F20042C4F20102CE
:10317000904203D1CA6823F44073134323F08002C2
:103180004B69D1F800E08C681A430260C46240F4D5
:103190008062C0F828E0624504BF0969016301212B
:1031A00041610169C90708BF10BD016921F0010132
:1031B000016110BD40F24C20C2F20000FFF7FEBAE0
:1031C00040F29420C2F20000FFF7F8BA806B0021B1
:1031D000C185C184FFF7F0BA81B090F8421022296E
:1031E00021D183680246B3F5805F09D152F8281FC8
:1031F00052F8183C002B63D003685B680AE000BFFC
:1032000052F8281F13B90369002BF5D003685B68D7
:1032100003F07F030B70116801311160C18D01391A
:103220000A04C18502D001B0704700BF0168CA68B6
:1032300022F02002CA60CA6822F48072CA604A6919
:1032400022F001024A61202180F8421000214163EE
:10325000026B012A3CD10163016851E8031F026837
:1032600021F0100142E80313DBB1016851E8031FAC
:10327000026821F0100142E8031393B1016851E89C
:10328000031F026821F0100142E803134BB10168EB
:1032900051E8031F026821F0100142E80313002BDC
:1032A000DAD101680A68D20606D5002200920A68BF
:1032B0000092496800910099818D01B0FFF77ABAB8
:1032C000026852686FF35F2221F8022B8162A5E742
:1032D00001B0FFF70FBE0000B0B50446006804F16E
:1032E00008030ECB0569194325F440552A430261B2
:1032F0006269E3691143C268194349F20C639A4356
:103300001143C1604169A26921F4407141F2004357
:10331000114340F48062C4F201039A42416103D137
:10332000FEF748FB02E000BFFEF730FBE1694FF615
:103330009C7563681922C0F6FF75B1F5004FA0FBBC
:1033400002011FD15A00DB0FFCF7E9FF48F21F51C1
:10335000C5F2EB11A0FB01235A0905F1805302FBD2
:103360000300322303EBC000A0FB01014FF4F8700F
:1033700000EA111000EB0210C1F342110844216869
:103380008860B0BD9A009B0FFCF7C9FF48F21F513F
:10339000C5F2EB11A0FB01235A0902FB0500322301
:1033A00003EB0010A0FB0101F02000EA511000EB3C
:1033B0000210C1F34311084421688860B0BD0000C9
:1033C000FEE70000B0B50446D0E900108968A160AE
:1033D000002100F037F8616805460846012100F039
:1033E00031F8854288BF28463128A0811FD800BF08
:1033F000A068B228B8BFB0BD5020FEF70FF8A16892
:103400002068023900F0FCFED4E900108968A16050
:10341000002100F017F8616805460846012100F018
:1034200011F8854288BF28463228A081E0D3B0BD7C
:1034300082880A60C2884A6002898A600021C1606D
:103440007047000000EB41008088704785230BC265
:1034500070470000F0B581B007460C201C461546A9
:103460000E46FCF72DFFE121C0E900658160C7E948
:1034700000040020B88101B0F0BD000080B50368F1
:10348000D2F800C01960D0E9003EC3F804C0CEF8FD
:103490000010D2F804C0D0E9013EC3F804C0CEF851
:1034A00000109168D0E901230068596069218160AA
:1034B000A82090605220986080BD00002DE9F04760
:1034C00084B004460C200390082002900420DDE91B
:1034D0000CA901900C20984616460F46FCF7F0FE0A
:1034E000054620600C20FCF7EBFE44F8040F0C208E
:1034F000FCF7E6FE60600C20FCF7E2FEA0603846B8
:1035000000212A460025FFF7A1FF01AA20463946DF
:10351000FFF7B4FF1020FCF7D3FE314600224346EC
:10352000E060FFF797FF0120C4E904A92083C4E904
:103530000755C4E90955C4E90B5504B0BDE8F08747
:103540000860002088808871C8607047C068704734
:10355000A0B041F60005C4F20205FEF765F8FFF7DA
:1035600017FD002743F630010997CDE90777CDE92C
:1035700005771397C4F202010868A5F5805840F05A
:10358000040008600868002200F0040013901398FB
:103590001397086840F020000860086800F02000D9
:1035A000139013981397086840F08000086008682B
:1035B00000F08000139013981397086840F0010002
:1035C0000860086800F001001390139813970868CA
:1035D00040F002000860086800F0020013901398A1
:1035E0001397086840F040000860086800F0400049
:1035F000139013981397086840F01000086008684B
:1036000000F01000139013981397086840F008001A
:1036100008600868162100F00800139013984046CF
:10362000FDF7E8FFA5F5C050802100228346FDF795
:10363000E1FFA5F540604FF4405100220490FDF7F2
:10364000D9FF28464FF4C0410022FDF7D3FF4FF6C3
:103650003F00059002200690032008900C20A5F55D
:10366000806605AD099030462946022407974FF041
:1036700003094FF00C0AFDF7E5FE4FF4607005A951
:1036800091C105200990304629460897FDF7DAFEDA
:103690004FF4806005A991C10E200990304629465B
:1036A0000897FDF7CFFE0120059007A880E8800667
:1036B00040462946012606940224FDF7C3FE162043
:1036C000CDE90506404629464FF00109CDE90777C7
:1036D000CDF80880FDF7B6FE48F2070005904FF4DC
:1036E000901658462946CDE90667CDF80CB0FDF78F
:1036F000A9FE41F6580005A991C10E20099058462F
:1037000029460897FDF79EFE8020CDE90509584619
:103710002946CDE90777FDF795FE202005A9C1C10F
:1037200040462946FDF78EFE41F60009C4F2020923
:103730000420A9F5A058CDE905074046294607977A
:10374000FDF780FE48F2331005A991C14FF0030A3E
:103750004FF00C0B48462946CDF820A0CDF824B0F8
:10376000FDF770FE49F2034005A981E8910CA9F527
:10377000006029460C26FDF765FE4FF4706005A930
:1037800091C10E200990404629460897FDF75AFE40
:103790004FF4504005A991C140462946CDE908762D
:1037A0004FF00C0AFDF74EFE4FF40050CDE905072F
:1037B000404629460797FDF745FE4CF2037005A9E0
:1037C00091C1049C032620462946CDE9086AFDF7ED
:1037D00039FE4FF40060CDE90507204629460797DA
:1037E000FDF730FE4FF4405005900120CDE906076B
:1037F000204629460897FDF725FE4FF0040B484662
:103800002946CDE905B60797FDF71CFE4FF40C607D
:10381000059002260E2448462946CDE906670897FA
:103820000994FDF70FFE0994029C4FF49860CDE9CE
:103830000506204629464FF0020ACDE90777FDF735
:1038400001FE4FF400700590012607A84FF0120901
:1038500080E8C00820462946CDF818904FF0040BA8
:10386000FDF7F0FD4FF48070CDE9050907A880E869
:10387000C008039E29463046FDF7E4FD4FF4C060C2
:10388000CDE9050A07204FF0030909903046294683
:103890000797CDF82090FDF7D5FD4820CDE9050A22
:1038A0000E20099004982946CDE90777FDF7CAFD57
:1038B0004FF4A05041F60004CDE9050A0920C4F2F6
:1038C0000204099020462946CDE90777FDF7BAFDA5
:1038D0004FF4C04005900120CDE906072046294657
:1038E0000897FDF7AFFD6020CDE9050A0C2009908F
:1038F00040462946CDE90779FDF7A4FD43F630019E
:103900000597C4F202010868002240F480000860B4
:103910000868002100F48000059005983820FDF724
:1039200027FF3820FDF712FF40F27005C2F20005B4
:1039300004F5C051284640F8101FFDF7BBF918B137
:1039400072B600BFFEE700BF4BF20001C4F20201F5
:10395000284640F8181FC0E90177C760C0E90A7718
:10396000C0E90C77FDF7C6FA10B172B6FEE700BFEA
:1039700005F118000121FDF7CFF918B172B600BFAB
:10398000FEE700BF40F274100021A4F58C32C2F2B1
:1039900000008F2342F20F771F91CDE91D11CDE971
:1039A0001A11CDE90B11CDE90911CDE90711CDE9C6
:1039B0000511C0E90023C0E90217C0E904118161C3
:1039C000FEF7A0FA10B172B6FEE700BF4FF48050C8
:1039D0001C9040F27410C2F200001CA9FEF750FBCC
:1039E00010B172B6FEE700BF40F27410C2F20000E0
:1039F000FEF71AFE10B172B6FEE700BF40F2741077
:103A0000C2F200001AA9FEF71FFA18B172B600BF81
:103A1000FEE700BF602013900020CDE91400CDE93F
:103A20001600CDE9180040F27410C2F2000013A98C
:103A30000022FEF7E9FC18B172B600BFFEE700BF36
:103A400040F27410C2F2000013A90422FEF7DCFC5D
:103A500010B172B6FEE700BF40F27410C2F200006F
:103A600013A90822FEF7D0FC10B172B6FEE700BF22
:103A700040F27410C2F2000013A90C22A346FEF714
:103A8000C3FC08B172B6FEE74FF400500A9040F252
:103A900074100024C2F2000005A90994CDE907447E
:103AA000CDE905440C94FEF7A9F908B172B6FEE71A
:103AB00040F27410C2F20000FEF75CFC40F24C20B1
:103AC000ABF5E431C2F200004FF4E1370C26C0E957
:103AD0000017C0E90244C0E90446C0E90644FFF704
:103AE00025F908B172B6FEE740F29420ABF5D0316B
:103AF000C2F200000024C0E90017C0E90244C0E996
:103B00000446C0E90644FFF711F908B172B6FEE7B2
:103B100040F2CC000122C2F20000C0F60072ABF508
:103B200078410126C0E90A2402220894067680F82A
:103B30002040C26180F83060C0E90014C0E902444E
:103B4000C0E90464FCF7DCFE10B172B6FEE700BF0A
:103B50000820CDE905060620079040F2CC00C2F20D
:103B6000000005A9FCF708FE10B172B6FEE700BF21
:103B7000092040F2CC0405900220C2F20004069015
:103B800005A92046FCF7F8FD10B172B6FEE700BFAC
:103B900040F2BC100021C2F200004FF080428F239F
:103BA00042F20F771691CDE91411CDE91C11CDE940
:103BB0000A11CDE90811C0E90023C0E9021701612B
:103BC0008161FEF79FF908B172B6FEE74FF48050AD
:103BD000139040F2BC10C2F2000013A9FEF750FA95
:103BE00010B172B6FEE700BF40F2BC10C2F2000096
:103BF000FEF71AFD10B172B6FEE700BF40F2BC102E
:103C0000C2F200001CA9FEF71FF908B172B6FEE768
:103C10006020059040F2BC104FF0000AC2F2000094
:103C200005A90022CDE906AACDF824A0FEF7ECFBF9
:103C300010B172B6FEE700BF40F2BC19C2F2000933
:103C40004846FEF797FB40F27418C2F2000840465F
:103C50000021FEF71BFD40460421FEF717FD4046FC
:103C60000821FEF713FD40460C21FEF70FFD4846E4
:103C70000021FEF70BFD204629460222FCF746FFF5
:103C80001020FCF71DFB064668601020FCF718FBAF
:103C9000A86040F24C20C2F200003146FFF750FC11
:103CA000A96840F29420C2F20000FFF749FC082006
:103CB000FCF706FB6968E860C0E9004A51F8040BAC
:103CC0000622FFF7EDF8A968062251F8040BFFF76A
:103CD000E7F8D5E90167EB6805AC204641464A465E
:103CE000CDE90067FFF7EAFB4FF49670CDF840A0EE
:103CF000CDE9110A3220FDF791FB58464FF40051EF
:103D00005D46FDF76FFC204600F0FCF958464FF485
:103D10000051FDF767FC58464FF48041FDF762FC07
:103D20006420FDF77BFB204600F09AFA58464FF4DA
:103D30008041FDF757FCDDE7F0B581B004468068AF
:103D400040F2C805081AC2F20005322110F18706B8
:103D5000296013D02868FDF761FBA0684FF0FF31A0
:103D6000002EC8BF01214FF0010701442046C8BF03
:103D70004FF0FF3700F044FAF619EBD101B0F0BD77
:103D8000F0B581B040F2C8070546C2F200074FF413
:103D900096700C46386028462D2100F031FA2E2608
:103DA0003868FDF73BFB2846314600F029FA297AAE
:103DB000204600F019FA0136E22EF1D101B0F0BD33
:103DC0002DE9F04F81B02DED048B8AB08146084675
:103DD000154601F09CFC9FEDA00B53EC102B01F05D
:103DE0001BFA824628460C4601F091FC02460B461F
:103DF000CDE9081001F0B6FC05460E4650462146B6
:103E000052462346079401F0ADFC2A46334601F0A2
:103E100003FA9FED930B41EC180B56EC105B2A460E
:103E2000334601F0F9F92A46334601F0F5F99FEDE2
:103E30008E0B53EC102B01F0A3FAB0EE480AF0EE13
:103E4000680A05460E4641EC190B00F069FDB0EE1C
:103E5000408A284631462A463346F0EE608A01F011
:103E600081FC9FED830B02460B4651EC100B01F0D9
:103E70004FFE41EC100B00F053FDB0EE491AF0EE8E
:103E8000691A00F085FB51EC100B9FED7B0B53EC96
:103E9000104B2246049301F065FC9FED790BCDE9B0
:103EA000051053EC102B01F05DFC41EC190BB0EE4A
:103EB000490AF0EE690A00F0CFFC51EC100B9FEDBF
:103EC000720B55EC106B32462B4601F04BFCB0EEFA
:103ED000490AF0EE690ACDE9021000F059FC51ECF4
:103EE000100B32462B4601F03DFC32462B4601F0CA
:103EF00093F901900F465BEC188BDDE90810424600
:103F00005B4601F03DFA41EC180B079950464246DA
:103F10005B4601F035FA41EC110BB0EE480AF0EEC9
:103F2000680A00F035FB22462546049C51EC100B34
:103F3000234601F017FC82460E46DDE90210424698
:103F40005B4601F01DFA41EC180B019839464246D8
:103F50005B4601F015FA41EC110BB0EE480AF0EEA9
:103F6000680A00F015FB51EC100B2A46234601F0BD
:103F7000F9FB02460B465046314601F04DF901F07F
:103F800097FB0546DDE9051001F092FBD9E9001227
:103F9000D9F8083089686E1A91689A68471A1044EF
:103FA000281A56EA070100F1870529D1ADB100BFF3
:103FB0001420FDF733FAD9F808004FF0FF3281687A
:103FC000002DC8BF01224FF001041144C8BF4FF0BB
:103FD000FF3400F015F92D19EAD10AB0BDEC048BBD
:103FE00001B0BDE8F08F00BFB7F1FF3F04DD00274F
:103FF00056EA070004D1D9E701244FF0FF311AE057
:104000002820FDF70BFA002E0CDD4FF0FF340121C4
:10401000D9F800008268114400F0F2F82644002F1D
:1040200006DCE1E7B6F1FF3F10DD0026002FDBDD07
:104030004FF0FF340121D9F804008268114400F0E8
:10404000DFF8274456EA0700DAD1AFE701244FF042
:10405000FF31DDE700BF00BF00000000000069C0C5
:10406000000000000024D3C0000000000024E34052
:10407000000000000000F03FF8C1631ADCA54C40CE
:10408000399D52A246DF913F000000000080614050
:10409000B0B50446D0E900108968A1600021FFF79F
:1040A000D1F96168054608460121FFF7CBF9A168FF
:1040B000854288BF2846E029A08122DC052805D258
:1040C0001FE000BFA068E028C8BFB0BD5020FDF7CA
:1040D000A5F9A1682068023100F092F8D4E9001037
:1040E0008968A1600021FFF7ADF9616805460846BF
:1040F0000121FFF7A7F9854288BF28460428A0813F
:10410000E0D8B0BDF0B581B00446007F032869D87F
:10411000DFE800F0025610186069FFF717FA002870
:10412000FAD0606904F1200101B0BDE8F040FFF76A
:104130007FB900BF2068A16901B0BDE8F040FFF77A
:104140001FBE00BF2068616BD4E90956FFF7F4FD7C
:104150004FF47A70FDF762F9216B271D38466FF036
:104160001902FFF72DFE4FF47A70FDF757F9206919
:10417000FFF728F94FF47A70FDF750F93846FA2125
:104180000F22FFF71DFE20683146FFF7D5FD4FF4E3
:104190007A70FDF743F9384629466FF01902FFF7A8
:1041A0000FFE4FF47A70FDF739F92069FFF770FFC1
:1041B0004FF47A7001B0BDE8F040FDF72FB900BFB1
:1041C000201DFA210F22FFF7FBFD20680021FFF7D9
:1041D000B3FD20690068816801B0BDE8F04000F0DF
:1041E0000FB800BF01B0F0BD80B582B000688DF897
:1041F00007100DF107010122FEF79CFE02B080BD01
:10420000F0B581B00446D0E900200D46166848B1EB
:10421000082805D0042814BF4027382703E000BF32
:104220003C2700E03427284601F071FA9FED080B87
:1042300053EC102B01F096FA9FED070B53EC102B6B
:1042400000F0EAFF01F034FAF051A56001B0F0BDD2
:104250006F1283C0CAA10D400000000000406F40F3
:10426000027F032A0DD80021DFE802F0040A0202CF
:10427000012105E0016A0139032928BF7047013196
:104280000177704703B401984100009850EAC120BB
:1042900018BF04204A0D18BF40F0010040F2FF7221
:1042A000B2EB515F08BF40F00200012808BF0520B3
:1042B00002B070470000000070B59B482DED020B66
:1042C0002DED068B079D25F00044A04218DC974891
:1042D000844202DC0AD1069840B19DED060BBDEC8C
:1042E000068B02B0BDE8704000F042BF002DCCBF8D
:1042F0009FED8F0B9FED900BBDEC068B02B070BD58
:104300008F48A04215DD8F48A042D8BF4FF0FF3440
:1043100058DD9DED060B51EC100BFFF7B3FF0428A1
:1043200008BF00F049FF9DED060BBDEC068B02B007
:1043300070BD9DED060B51EC100B00F055FFCDE963
:10434000060181489FED828BA0423CDD8248A0425D
:104350001FDD00249FED82AB9DED060B53EC1A2B65
:1043600051EC100B00F058FF9DED060B41EC190BC2
:1043700053EC1A2B51EC100B01F0F4F953EC182B01
:1043800001F0C6FB53EC192B00F0FAFFCDE9060152
:1043900049E09DED060B012453EC182B51EC100B5A
:1043A00000F03AFF9DED060B41EC190B53EC182B76
:1043B00051EC100B01F0ACFB53EC192B00F0E0FFBB
:1043C000CDE906012FE06848A0421FDD02249FEDE1
:1043D000689B9DED060B53EC192B51EC100B01F073
:1043E000C1F953EC182B00F017FF9DED060B41ECC3
:1043F000180B53EC192B51EC100B01F089FB53EC0B
:10440000182B00F0BDFFCDE906010CE09DED060B79
:10441000032453EC102B9FED580B51EC100B00F0C4
:10442000AFFFCDE906019DED060B53EC102B51ECCF
:10443000100B01F097F941EC180B53EC182B01F01D
:1044400091F941EC190B4E480621B0EE490AF0EE05
:10445000690A784400F078FD53EC182B51EC100BEE
:1044600001F080F941EC180B4648B0EE490AF0EE35
:10447000690A0521784400F067FD53EC192B51ECD3
:10448000100B01F06FF941EC100B51EC180B53ECD1
:10449000102B002C0EDA00F0BFFE9DED061B53EC36
:1044A000112B01F05FF99DED061B53EC112B01F070
:1044B00057FA35E000F0B0FE9DED061B53EC112BD2
:1044C00001F050F941EC100B2F48784400EBC40088
:1044D00090ED001B51EC100B53EC112B01F018FB6D
:1044E0009DED061B53EC112B01F012FB41EC100B60
:1044F0002648784400EBC40090ED001B51EC100BF3
:1045000053EC112B01F02CFA41EC100B002DA2BF43
:10451000BDEC068B02B070BD51EC100B00F070FECC
:1045200041EC100B01E70000000010440000F07F98
:10453000182D4454FB21F93F182D4454FB21F9BF99
:104540000000DC3F0000203E0000F33F00000000C0
:10455000000000000000F03F0000E63F0000000007
:104560000000000000000040008003400000000048
:10457000000000000000F83F000000000000F0BF55
:104580001A190000D01800005A1800001218000074
:1045900070B56F4E2DED040B2DED048B82B0DDF860
:1045A00024C0DDE907235C422CF000411C4341EAB2
:1045B000D474069D22F00040B44205D86C422C43CE
:1045C00040EAD474B4420BD99DED081B9DED060B57
:1045D00002B0BDEC048B04B0BDE8704000F0D2BD69
:1045E000ACF14054A4F17F641C430BD0022404EAD4
:1045F000AC7444EAD27405439FED578B9FED582B62
:1046000007D015E09DED060B51EC100B00F0E4FD1A
:1046100042E0002C11BF012C9DED060B02B0BDEC59
:10462000048B04BF04B070BD022C38D0032C3BD0E7
:104630000B439FED4D1B9FED4E0B0AD0B14218D19D
:10464000B04209D121F0804120F0804009910790CB
:104650000FE0002A15DA10E0474B7B44002C08BF1E
:1046600093ED000B0DD0012C10D0022C17D0032C91
:104670001AD0B0421DD1002A03DAB0EE410AF0EEA2
:10468000610A02B0BDEC048B04B070BD93ED000B69
:1046900051EC100B00F0B4FD41EC100BF1E7B0EE63
:1046A000480AF0EE680AECE7B0EE420AF0EE620A61
:1046B000E7E7401A00159FED329B3C28C8BF8DEDFF
:1046C000000B17DCBCF1000FBCBF10F13C0F8DEDEF
:1046D000009B0FDB9DED080B53EC102B9DED060BA3
:1046E00051EC100B00F04CFE00F07EFD00F074FD6C
:1046F000CDE90001B4B1012C10D0022C9FED220BAA
:1047000053EC102B9DED000B51EC100B19D001F068
:10471000FFF953EC182B01F0FBF9BDE7019880F08D
:10472000004001909DED000B53EC192B51EC100B48
:1047300000F082FF04BF0220FBF711FF9DED000B8C
:104740009FE701F0E5F953EC182B01F009F9A3E715
:104750000000F07F00000000182D4454FB210940A8
:10476000182D4454FB2109C0182D4454FB21F9BFD6
:10477000182D4454FB21F93F72170000000000007F
:104780000000000000000000075C143326A6A13CD6
:1047900010B52F499FED2C1B2DED020B84B0059811
:1047A00020F000408842D8BF9DED040B2DDD294943
:1047B000884209D1049840B94FF00100FBF7CFFEC1
:1047C00000F0EAFC06B010BD05DB9DED040B00F027
:1047D000CFFC06B010BD68469DED040B00F0E0F87C
:1047E00010F0030004BF9DED021B9DED000B0CD0EB
:1047F00001280ED09DED021B9DED000B022817D065
:10480000012000F01DFC06B010BD00F0E5FA06B076
:1048100010BD9DED021B9DED000B012000F010FC72
:1048200051EC100B00F0ECFC06B041EC100B10BD8D
:1048300000F0D2FA51EC100B00F0E2FC06B041ECB3
:10484000100B10BD00000000000000000000000080
:10485000FB21E93F0000F07F10B52F499FED2C1B95
:104860002DED020B84B0059820F000408842DCBF9B
:1048700000209DED040B32DD2849884209D10498BF
:1048800040B94FF00100FBF76AFE00F085FC06B06E
:1048900010BD05DB9DED040B00F06AFC06B010BDF9
:1048A00068469DED040B00F07BF810F0030011D07A
:1048B000012818D09DED021B9DED000B02281AD097
:1048C00000F08AFA51EC100B00F09AFC06B041ECB3
:1048D000100B10BD9DED021B9DED000B012000F0A3
:1048E000AFFB06B010BD9DED021B9DED000B00F06F
:1048F00073FA06B010BD012000F0A2FB51EC100BC2
:1049000000F07EFC06B041EC100B10BD0000000072
:104910000000000000000000FB21E93F0000F07FE4
:1049200000B52DED048BB0EE409AF0EE609A83B0A6
:1049300051EC190B01F020F841EC180B18EE100A9D
:1049400018EE901A8DED008B002818BF0120084347
:1049500020F00040C0F17F6000F1E040C00F14D0B3
:1049600019EE101A19EE900A8DED009B002918BF60
:104970000121084320F00040C0F17F6000F1E040D9
:10498000C00F04BF0120FBF7EAFDB0EE480A03B0F8
:10499000F0EE680ABDEC048B00BD000000000000D2
:1049A0002DE9F14F04462DED020B2DED088B8AB059
:1049B0009FEDE70B80ED020B139EE74826F00045C4
:1049C00085420ADC9DED120B002084ED000B0AB03D
:1049D000BDEC088B03B0BDE8F08FE0489FEDE0AB85
:1049E0009FEDE1BBA84247DDE14F9FEDE39B9FEDCB
:1049F000E48B9DED120B53EC1A2B51EC100B002E97
:104A00001CDD01F085F841EC100BBD4208D053ECE1
:104A10001B2B51EC100B01F07BF8C4E900010BE0FB
:104A200053EC192B51EC100B01F072F853EC182BCE
:104A300001F06EF8C4E900010120C8E700F0ECFBCA
:104A400041EC100BBD4208D053EC1B2B51EC100B6A
:104A500000F0E2FBC4E900010BE053EC192B51EC30
:104A6000100B00F0D9FB53EC182B00F0D5FBC4E978
:104A700000014FF0FF30AAE7C348A84279DB9DED63
:104A8000120B51EC100B00F0AFFB41EC180B9FED3B
:104A9000C00B53EC102B00F065FE9FEDBF1B53ECD9
:104AA000112B00F0B9FB00F003FE074600F02FFECB
:104AB00041EC190B53EC1A2B00F054FE53EC182B5D
:104AC00000F04EFF41EC180B53EC1B2B51EC190B73
:104AD00000F048FEDFF8C8A241EC100B4FEA155871
:104AE0000125FA4453EC102B51EC180B01F010F88F
:104AF000032DC4E900013DD0C1F30A5005EB451177
:104B0000A8EB00001139814234DA0AEB051BB0EE44
:104B100048AA9BED000BF0EE68AA53EC102B51EC69
:104B2000190B00F01FFE41EC1B0B51EC1A0B53EC60
:104B30001B2B00F0EDFF41EC180B51EC1A0B53EC62
:104B4000182B00F0E5FF53EC1B2B00F0E1FF9BED71
:104B5000020B41EC1A0B53EC102B51EC190B00F02B
:104B600001FE53EC1A2B00F0D3FF41EC100B6D1C2F
:104B7000B8E70EE0002EA8BF3846BFF628AF94ED88
:104B8000000B51EC100B00F03BFBC4E90001784234
:104B90001DE7C6F3130040F4801EC6F30A50A0F2CE
:104BA000F530471100F01F05C5F12000DDF848B0D1
:104BB00008900020069007900520EC467949002DCA
:104BC00007EB0002794408BF51F8221009D051F8D0
:104BD000223001EB8201AB404A68089922FA01F1C8
:104BE0001943A1FB0E26A1FB0B131A449A4234BFB2
:104BF0000123002303EB06080CEB8003D3E901A695
:104C00000E448E4234BF0121002192448A4411B1E6
:104C1000924502D903E0924501D2012100E0002132
:104C2000C3E901A641444CF82010011EA0F1010087
:104C3000C4DC029800F10050850F0298DDE903679B
:104C40008000DDF8148000F062FD41EC1A0B304664
:104C500000F074FD9FED541B53EC112B00F082FD0E
:104C600041EC1B0B384600F069FD9FED511B53ECE6
:104C7000112B00F077FD41EC180B404600F05EFD73
:104C80009FED4D1B53EC112B00F06CFD41EC190B0B
:104C900051EC180B53EC192B00F0BEFA53EC1B2B04
:104CA00000F0BAFA53EC1A2B00F0B6FACDE908017D
:104CB000002008909DED080B53EC1A2B51EC100BC3
:104CC00000F026FF53EC1B2B00F022FF53EC182BB7
:104CD00000F01EFF53EC192B00F042FE9FED381B35
:104CE00053EC112B00F03EFD9FED370B41EC180B00
:104CF00053EC102B9DED080B51EC100B00F032FD26
:104D000053EC182B00F088FA9FED310B41EC180B97
:104D100053EC102B9DED080B51EC100B00F022FD15
:104D200053EC182B00F078FA41EC100B139810F0AC
:104D3000004F06D06D4251EC100B00F061FA41ECCF
:104D4000100B284684ED000B41E600000000000037
:104D50000000000000000000FB21E93F7CD9024078
:104D600000004054FB21F93F3163621A61B4D03D29
:104D7000FB21F93F000000000000601A61B4D03D43
:104D80007370032E8A19A33BFB21394100000000F8
:104D900083C8C96D305FE43F000000000000E03FC1
:104DA000F212000040120000000000000000103E5F
:104DB000000000000000103C000000000000103A5D
:104DC000182D4454FB21F93D3326A611460B113C06
:104DD00000000054FB21F93D10B52DED040B2DED25
:104DE000088B82B0B0EE419AF0EE619A0B9820F0F9
:104DF00000449FED4BABB4F1795F11DA9DED0A0BE6
:104E000051EC100B00F054FC002801BFB0EE4A0A30
:104E1000F0EE6A0A02B0BDEC088B04BF04B010BD0E
:104E20009DED0A0B53EC102B51EC100B00F09AFC8B
:104E300041EC180B3C480621B0EE480AF0EE680A37
:104E4000784400F081F853EC182B51EC100B00F073
:104E500089FC9DED0A0B41EC1B0B53EC192B51EC1B
:104E6000100B00F07FFC41EC190B53EC1B2B51ECA9
:104E7000180B00F077FC53EC192B00F049FE9FED66
:104E80002C0B41EC190B53EC102B51EC180B00F0D0
:104E900069FC41EC100B2848844210DA53EC192BC2
:104EA00051EC100B00F034FE53EC1A2B00F058FDBF
:104EB00041EC100B02B0BDEC088B04B010BD1F48D4
:104EC000A042BCBF9FED1E1B8DED001B06DBA4F5B1
:104ED00000100190002000909DED001B51EC100B84
:104EE00053EC112B00F014FE9DED000B41EC180B60
:104EF00053EC102B51EC1A0B00F00AFE41EC1A0B8C
:104F000053EC192B51EC180B00F002FE53EC1A2B4A
:104F100000F026FD41EC100BCCE700000000000083
:104F2000000000000000F03F5C0F000000000000E7
:104F3000000000000000E03F3333D33F0000E93FB2
:104F4000000000000000D23F70B504462DED028B3A
:104F50004D1E00EBC500B0EE408AF0EE608A90ED89
:104F6000000B35F0060017D053EC182B51EC100B4A
:104F700000F0F8FB41EC100B6D1E04EBC50090ED4A
:104F8000001B51EC100B53EC112B00F045F941ECD8
:104F9000100B35F00600E7D1022D36D0042D1CD0C1
:104FA000062D1CBFBDEC028B70BD53EC182B51ECD1
:104FB000100B00F0D7FB94ED0A1B53EC112B00F003
:104FC0002BF953EC182B00F0CDFB94ED081B53ECA0
:104FD000112B00F021F941EC100B53EC182B51EC84
:104FE000100B00F0BFFB94ED061B53EC112B00F0EF
:104FF00013F953EC182B00F0B5FB94ED040B53ECB4
:10500000102B00F009F941EC100B53EC182B51EC6C
:10501000100B00F0A7FB94ED021B53EC112B00F0DA
:10502000FBF853EC182B00F09DFB94ED001B53ECA8
:10503000112B00F0F1F8BDEC028B41EC100B70BDB0
:1050400031B504462DED040B2DED0A8BB0EE41BABF
:10505000F0EE61BA0B989DED0A0B20F00040B0F124
:10506000795F0DDA51EC100BFFF70CF9042808BF3B
:1050700000F0A2F89DED0A0BBDEC0A8B05B030BD27
:1050800053EC102B51EC100B00F06CFB41EC180BA7
:105090009DED0A0B53EC182B51EC100B00F062FB4A
:1050A00041EC190B2C48B0EE480AF0EE680A0521D5
:1050B0007844FFF749FF9FED2ACBB0EE40AAF0EE0F
:1050C00060AA9CB353EC1C2B51EC190B00F04AFB6B
:1050D00041EC1C0B53EC1A2B51EC190B00F042FB6A
:1050E0009FED210B41EC190B53EC102B51EC1B0BDA
:1050F00000F038FB53EC192B00F00AFD53EC182B91
:1051000000F030FB53EC1B2B00F002FD53EC1C2B8A
:1051100000F0FEFC9DED0A1B53EC112B00F020FC6F
:10512000BDEC0A8B05B041EC100B30BDFFE753EC32
:105130001A2B51EC180B00F015FB53EC1C2B00F054
:105140006BF853EC192B00F00DFB9DED0A1B53EC93
:10515000112B00F061F8E3E7F40D000000000000FF
:10516000495555555555C5BF000000000000E03FAA
:1051700010B553EC102B51EC100B00F04DF841EC36
:10518000100B10BD10B553EC112B51EC100B00F0AF
:1051900043F841EC100B10BD9FED050B10B553EC1F
:1051A000102B51EC100B00F0EBF841EC100B10BD84
:1051B00000000000000000009FED050B10B553EC4F
:1051C000102B51EC100B00F0CDFA41EC100B10BD80
:1051D000000000000000001010B541EC100BFFF7BC
:1051E0006BF851EC100B10BD82B0CDE9000121F03D
:1051F000004001909DED000B02B051EC100B704788
:1052000081F00041704780F00040704721F000417C
:10521000704720F00040704710B591EA030F48BF77
:1052200083F0004300F17C84841A71EB030C05D2F7
:10523000121943EB0C03001B61EB0C014FEA1154F4
:10524000A4EB135CDFF81CE11EEA430F18BF9EEAD3
:10525000445F00F0748021EA045123EA0E0343F412
:105260008013DCF1200E32D322FA0CFE10EB0E007C
:1052700023FA0CFE41EB0E01CCF1200E03FA0EFED8
:1052800010EB0E00CCF1200E51F10001B1F5801FA2
:1052900032D201EB045112FA0EF2BDE8104058BFB1
:1052A0007047401C38BF5FEA420218BF70470028B1
:1052B00014BF20F0010041F100014FEA410313F552
:1052C000001F38BF7047A1F1C04100F043BB012A65
:1052D00043EB0302ACF1200CDCF11F0E32BF4FF0A8
:1052E000000E23FA0CF310EB030041EB0451B4EB76
:1052F000115FD0D0A1EB045101F58011490801EBF9
:1053000004515FEA30000ED350F1000038BF12FAAA
:105310000EFE08D1BDE81040C9E7401C38BF5FEA67
:105320004202CAD1C3E7BDE810404FEA410313F57A
:10533000001F38BF7047A1F1C04100F00BBB9EEACF
:10534000445F08D011EA5E0FBDE8104004BF01F0D1
:10535000004100207047BDE8104070B500F0ACFA85
:1053600064FBBE3E0000E0FF491058BFC1F1404160
:105370005B1058BFC3F140438B42EFF3008070478E
:105380002DE9C04130B4DFF8A8C23CEA111418BFBF
:105390003CEA131400F0F0801CEA111481EA0305C2
:1053A00044EAD57418BF1CEA131500F0CB80A4EBB7
:1053B000050404F17F7404F500344FF0004545EA1C
:1053C000C12145EAC32341EA505143EA52534FEA0F
:1053D000C0204FEAC222994208BF904200F0A0804C
:1053E0004FEA13650FF24816765D4FEA134506FB48
:1053F00005F7C7F1807706FB07F74FEAD737A7FB1A
:1054000003687642A7FB06CEC8F5803838BFA8F1FE
:10541000010807FB08E6A6FB028C4FF0000EE6FB36
:1054200003CED8F100086FEA0C0C5CF1000C6FEAB7
:105430000E0E4EF1004EA6FB0C584FF00007E6FB97
:105440000E87A1FB08C6A0FB07CE16EB0E064FF099
:10545000000545F10005E1FB076515F1E04E7EBF53
:10546000A4F580345FEA46066D4116F1800745F1E8
:1054700000054FEA172747EA05674FEA15254FEA67
:105480000666A6F1DE46B6F1805F20D9384605EB08
:10549000C47124F0010C01EB0C11BCF1FE6F02D8B9
:1054A000F0BCBDE8008124425CBF01F5801E9EEA8D
:1054B000C47F02D4F0BCBDE80081244200F13980F1
:1054C000A1F1C041F0BCBDE8004100F043BA4FEA91
:1054D000D02040EA41504FEAD1214FEAD22242EA9D
:1054E00043524FEAD323A7FB028607FB036605FB63
:1054F00002661EEA0E0F58BFA6EB0056B6EB00562A
:105500004FEA520E4EEAC37E18EB0E0E56EB530EC8
:10551000BCD518EB02085E417F1C55F10005B5E7CC
:105520004FF480154FF000074FF000064FF00008D1
:10553000ACE701F1C04101F000414FF00000F0BCC8
:10554000BDE800810CEA131511EA0C1F00D00CE035
:1055500013EA0C1F00F025804FF0000081EA0301E0
:1055600001F00041F0BCBDE80081F0BCBDE80041A5
:1055700081EA030100F0EEB9F0BCBDE8004170B56E
:1055800000F09AF9097EFC3E00F007B84FF00000E9
:1055900081EA030101F00041704781EA030100F054
:1055A000D9B9F0BCBDE8004122494FF00000704776
:1055B000FFFDFBF9F7F5F4F2F0EEEDEBE9E8E6E4D8
:1055C000E3E1E0DEDDDBDAD8D7D5D4D3D1D0CFCD5F
:1055D000CCCBCAC8C7C6C5C4C2C1C0BFBEBDBCBB98
:1055E000BAB9B8B7B6B5B4B3B2B1B0AFAEADACAB93
:1055F000AAA9A8A8A7A6A5A4A3A3A2A1A09F9F9E6D
:105600009D9C9C9B9A99999897979695959493931E
:10561000929191908F8F8E8E8D8C8C8B8B8A8989B5
:105620008888878786858584848383828281818038
:105630000000FF070000F87F51EA030C17D41CF5A7
:10564000801F58BFBCF5801F00F10680994218BF2B
:10565000704708BF9042704707D711F5801F58BFA9
:1056600013F5801F19D499427047894270471CF581
:10567000801F08D5BCF5801FF7D58B4218BF704737
:1056800008BF824270474FF4001C1CEB410F38BF2B
:105690001CEB430F01D28B42704770B500F00CF940
:1056A000922449004FF000514FF08053FFF75CBE49
:1056B0004FEA41034FEA5353A3F58063D3F11E032E
:1056C000C8BFD3F1210C0CDD4FF0004242EAC122E9
:1056D00042EA505232FA03FC8CEAE17CACEBE17016
:1056E0007047102BC4BF0020704703F5787CBCF1D5
:1056F000FF3F04D06FF0004282EA2100704770B58E
:1057000000F0DAF84992248000207047F2E710F0A8
:10571000004248BF4042B0FA80F310FA03F10AD0C9
:10572000C3F11D0303F5806302EB03524FEA4150BE
:1057300002EBD12170474FF000007047B0FA80F3C0
:1057400010FA03F10AD0C3F11D0303F580634FEA99
:1057500003524FEA415002EBD12170474FF0000055
:105760007047000070B5DFF848C11CEA111E1EBF6B
:105770001CEA13159EEA0C0F95EA0C0F00F06F80DF
:1057800081EA03044EEAD47EAE4421EA4C1123EAB6
:105790004C1341F4801143F48013AEF17F7EA1FBE2
:1057A000024CA0FB0365361955EB0C05A1FB034C1D
:1057B0004CF10003A0FB021C16EB0C06654153F1F3
:1057C0000003094218BF46F0010613F4007F0BD115
:1057D0004FEA03314FEA053041EA155140EA1650CD
:1057E00034036FF003020AE04FEAC3214FEAC520F9
:1057F00041EA555140EA5650F4026FF0020202EBC2
:105800002E4201EB025585EACE710AD05FEA440CC4
:1058100018BF24F0004450F1000041F1000120EADB
:10582000D47040F2FE7C624500D270BDA84214BF25
:105830004FF080444FF04044002E08BF0024BEF1DA
:10584000806FA8BFA1F1C041BDE8704080F28280A6
:1058500001F1C04101F000414FF0000070470CEA37
:1058600013159EEA0C0F18BF95EA0C0F06D081EABB
:10587000030E4FF000000EF0004170BD00F01CF868
:105880008900013E00F007B800F009B84FEA430C68
:105890005FEA5C5C08D081EA030100F05BB84FEA84
:1058A000410C5FEA5C5CF6D102494FF000007047A2
:1058B0000000FF070000F87F0EF1020E2EF0030E2D
:1058C0005EF8046B364205D4012A43EB030515F557
:1058D000001F12D8012841EB010C1CF5001F0CD849
:1058E0000ED14FEAD17C0CEB4C0C0CF1020C15F5EF
:1058F000001F08BF4CEBD37C04E04FF0080C01E024
:105900004FEAD37C0CEB4C0526FA05F606F00706A9
:10591000B6F1040C06D20EEB860CBDE870404CF0DC
:10592000010C6047DFE80CF0090B02024FF0004168
:10593000A1F500214FF0000070BD19461046012866
:1059400051EB010418BFD4F5001484BF002001F00E
:10595000004170BD0808A0F500114FEA3101704701
:1059600010B591EA030F81F000413FF55DAC83F083
:10597000004300F0D5B800002DE9F04101F5801C8E
:10598000BCF5001FC0F2A9804FEA115C21EA0C515E
:1059900041F480110CF1FD0C5FEA5C0C0CF5C07C4D
:1059A00001D340004941890241EA905187022EA467
:1059B0008E0EA45D0A0C04FB04F602FB06F6C6F18B
:1059C0004046A4FB0662F60D46EA422606FB06F4B4
:1059D000A4FB01235242C3F1404338BF5B1EA6FB28
:1059E00002420024E6FB0324D20B42EA4446A6FB13
:1059F0000623A1FB02E2A3FB07E4E3FB614264424E
:105A0000C2F1404E38BFAEF1010EA6FB04234FF0A9
:105A10000002E6FB0E32A2FB03463400E2FB6264A6
:105A2000A1FB06E6A4FB07E8E4FB61687642C8F147
:105A3000405838BFA8F10108A2FB06E4A3FB08E523
:105A4000E2FB6854A1FB05E6A7FB04E8E1FB6486E2
:105A500018F1200556F10006A80940EA8660B10950
:105A6000A8F11B0808F03F08B8F10A0F1CD901EB98
:105A70000C51BDE8F08100BFFCF5EEE8E2DDD8D3C3
:105A8000CFCBC7C3C0BDB9B6B4B1AEACA9A7A5A3AF
:105A9000A19F9D9B9A9896959392908F8D8C8B89C0
:105AA0008887868584838281A0FB006800FB01F2E1
:105AB00008EB4208B8EB872807D5341858EB0104E7
:105AC000D5D5401C51F10001D1E7341A78EB01041F
:105AD000CDD4401E71F10001C9E75FEA4C0C5FEACA
